{
  "_format": "hh-sol-artifact-1",
  "contractName": "CodeBountyResolver",
  "sourceName": "contracts/CodeBountyResolver.sol",
  "abi": [
    {
      "inputs": [
        {
          "internalType": "address",
          "name": "_codeBountyAddress",
          "type": "address"
        }
      ],
      "stateMutability": "nonpayable",
      "type": "constructor"
    },
    {
      "inputs": [],
      "name": "MAX_CHALLENGES_TO_CHECK",
      "outputs": [
        {
          "internalType": "uint256",
          "name": "",
          "type": "uint256"
        }
      ],
      "stateMutability": "view",
      "type": "function"
    },
    {
      "inputs": [],
      "name": "checker",
      "outputs": [
        {
          "internalType": "bool",
          "name": "canExec",
          "type": "bool"
        },
        {
          "internalType": "bytes",
          "name": "execPayload",
          "type": "bytes"
        }
      ],
      "stateMutability": "view",
      "type": "function"
    },
    {
      "inputs": [],
      "name": "codeBounty",
      "outputs": [
        {
          "internalType": "contract ICodeBounty",
          "name": "",
          "type": "address"
        }
      ],
      "stateMutability": "view",
      "type": "function"
    },
    {
      "inputs": [],
      "name": "lastProcessedId",
      "outputs": [
        {
          "internalType": "uint256",
          "name": "",
          "type": "uint256"
        }
      ],
      "stateMutability": "view",
      "type": "function"
    },
    {
      "inputs": [
        {
          "internalType": "uint256",
          "name": "_newLastProcessedId",
          "type": "uint256"
        }
      ],
      "name": "updateLastProcessedId",
      "outputs": [],
      "stateMutability": "nonpayable",
      "type": "function"
    }
  ],
  "bytecode": "0x60a060405234801561001057600080fd5b50604051610bcf380380610bcf833981810160405281019061003291906100cf565b8073ffffffffffffffffffffffffffffffffffffffff1660808173ffffffffffffffffffffffffffffffffffffffff1681525050506100fc565b600080fd5b600073ffffffffffffffffffffffffffffffffffffffff82169050919050565b600061009c82610071565b9050919050565b6100ac81610091565b81146100b757600080fd5b50565b6000815190506100c9816100a3565b92915050565b6000602082840312156100e5576100e461006c565b5b60006100f3848285016100ba565b91505092915050565b608051610aab6101246000396000818160fd0152818161012c01526102670152610aab6000f3fe608060405234801561001057600080fd5b50600436106100575760003560e01c80630928da2c1461005c578063ac52f90b14610078578063cd5d8f8814610096578063cf5303cf146100b4578063e343dc2d146100d3575b600080fd5b61007660048036038101906100719190610459565b6100f1565b005b6100806100fb565b60405161008d9190610505565b60405180910390f35b61009e61011f565b6040516100ab919061052f565b60405180910390f35b6100bc610124565b6040516100ca9291906105f5565b60405180910390f35b6100db610409565b6040516100e8919061052f565b60405180910390f35b8060008190555050565b7f000000000000000000000000000000000000000000000000000000000000000081565b600a81565b6000606060007f000000000000000000000000000000000000000000000000000000000000000073ffffffffffffffffffffffffffffffffffffffff16634adf30516040518163ffffffff1660e01b8152600401602060405180830381865afa158015610195573d6000803e3d6000fd5b505050506040513d601f19601f820116820180604052508101906101b9919061063a565b9050600080600054146101da5760016000546101d59190610696565b6101dd565b60015b90508181111561022a5760006040518060400160405280601a81526020017f4e6f206e6577206368616c6c656e67657320746f20636865636b000000000000815250935093505050610405565b60006001600a8361023b9190610696565b61024591906106ca565b905082811115610253578290505b60008290505b8181116103b35760008060007f000000000000000000000000000000000000000000000000000000000000000073ffffffffffffffffffffffffffffffffffffffff16638f1d3776856040518263ffffffff1660e01b81526004016102be919061052f565b600060405180830381865afa1580156102db573d6000803e3d6000fd5b505050506040513d6000823e3d601f19601f82011682018060405250810190610304919061089b565b509950995050985050505050505060008360ff161480156103305750808261032c9190610696565b4210155b1561039d5783604051602401610346919061052f565b604051602081830303815290604052638f4125ea60e01b6020820180517bffffffffffffffffffffffffffffffffffffffffffffffffffffffff838183161783525050505097506001985050505050505050610405565b50505080806103ab906109e3565b915050610259565b508281036103e2576000604051806060016040528060248152602001610a526024913994509450505050610405565b6000604051806060016040528060268152602001610a2c60269139945094505050505b9091565b60005481565b6000604051905090565b600080fd5b600080fd5b6000819050919050565b61043681610423565b811461044157600080fd5b50565b6000813590506104538161042d565b92915050565b60006020828403121561046f5761046e610419565b5b600061047d84828501610444565b91505092915050565b600073ffffffffffffffffffffffffffffffffffffffff82169050919050565b6000819050919050565b60006104cb6104c66104c184610486565b6104a6565b610486565b9050919050565b60006104dd826104b0565b9050919050565b60006104ef826104d2565b9050919050565b6104ff816104e4565b82525050565b600060208201905061051a60008301846104f6565b92915050565b61052981610423565b82525050565b60006020820190506105446000830184610520565b92915050565b60008115159050919050565b61055f8161054a565b82525050565b600081519050919050565b600082825260208201905092915050565b60005b8381101561059f578082015181840152602081019050610584565b60008484015250505050565b6000601f19601f8301169050919050565b60006105c782610565565b6105d18185610570565b93506105e1818560208601610581565b6105ea816105ab565b840191505092915050565b600060408201905061060a6000830185610556565b818103602083015261061c81846105bc565b90509392505050565b6000815190506106348161042d565b92915050565b6000602082840312156106505761064f610419565b5b600061065e84828501610625565b91505092915050565b7f4e487b7100000000000000000000000000000000000000000000000000000000600052601160045260246000fd5b60006106a182610423565b91506106ac83610423565b92508282019050808211156106c4576106c3610667565b5b92915050565b60006106d582610423565b91506106e083610423565b92508282039050818111156106f8576106f7610667565b5b92915050565b600061070982610486565b9050919050565b610719816106fe565b811461072457600080fd5b50565b60008151905061073681610710565b92915050565b600080fd5b600080fd5b7f4e487b7100000000000000000000000000000000000000000000000000000000600052604160045260246000fd5b61077e826105ab565b810181811067ffffffffffffffff8211171561079d5761079c610746565b5b80604052505050565b60006107b061040f565b90506107bc8282610775565b919050565b600067ffffffffffffffff8211156107dc576107db610746565b5b6107e5826105ab565b9050602081019050919050565b6000610805610800846107c1565b6107a6565b90508281526020810184848401111561082157610820610741565b5b61082c848285610581565b509392505050565b600082601f8301126108495761084861073c565b5b81516108598482602086016107f2565b91505092915050565b600060ff82169050919050565b61087881610862565b811461088357600080fd5b50565b6000815190506108958161086f565b92915050565b60008060008060008060008060008060006101608c8e0312156108c1576108c0610419565b5b60006108cf8e828f01610625565b9b505060206108e08e828f01610727565b9a505060406108f18e828f01610625565b99505060608c015167ffffffffffffffff8111156109125761091161041e565b5b61091e8e828f01610834565b98505060808c015167ffffffffffffffff81111561093f5761093e61041e565b5b61094b8e828f01610834565b97505060a08c015167ffffffffffffffff81111561096c5761096b61041e565b5b6109788e828f01610834565b96505060c06109898e828f01610886565b95505060e061099a8e828f01610625565b9450506101006109ac8e828f01610625565b9350506101206109be8e828f01610625565b9250506101406109d08e828f01610727565b9150509295989b509295989b9093969950565b60006109ee82610423565b91507fffffffffffffffffffffffffffffffffffffffffffffffffffffffffffffffff8203610a2057610a1f610667565b5b60018201905091905056fe4e6f2065787069726564206368616c6c656e67657320696e2063757272656e74206261746368436865636b656420616c6c206368616c6c656e6765732c206e6f6e652065787069726564a264697066735822122096987008d015c407db79aa4f986cba3f7cb8b8139e81ed42c66a6a9fd7605e0864736f6c63430008140033",
  "linkReferences": {},
  "deployedLinkReferences": {}
}