{
  "_format": "hh-sol-artifact-1",
  "contractName": "CodeBounty",
  "sourceName": "contracts/CodeBounty.sol",
  "abi": [
    {
      "inputs": [],
      "stateMutability": "nonpayable",
      "type": "constructor"
    },
    {
      "anonymous": false,
      "inputs": [
        {
          "indexed": false,
          "internalType": "uint256",
          "name": "challengeId",
          "type": "uint256"
        },
        {
          "indexed": false,
          "internalType": "address",
          "name": "creator",
          "type": "address"
        }
      ],
      "name": "ChallengeCancelled",
      "type": "event"
    },
    {
      "anonymous": false,
      "inputs": [
        {
          "indexed": false,
          "internalType": "uint256",
          "name": "challengeId",
          "type": "uint256"
        },
        {
          "indexed": false,
          "internalType": "address",
          "name": "creator",
          "type": "address"
        },
        {
          "indexed": false,
          "internalType": "uint256",
          "name": "bounty",
          "type": "uint256"
        },
        {
          "indexed": false,
          "internalType": "uint256",
          "name": "duration",
          "type": "uint256"
        }
      ],
      "name": "ChallengeCreated",
      "type": "event"
    },
    {
      "anonymous": false,
      "inputs": [
        {
          "indexed": false,
          "internalType": "uint256",
          "name": "challengeId",
          "type": "uint256"
        },
        {
          "indexed": false,
          "internalType": "address",
          "name": "winner",
          "type": "address"
        }
      ],
      "name": "ChallengeExpired",
      "type": "event"
    },
    {
      "anonymous": false,
      "inputs": [
        {
          "indexed": false,
          "internalType": "uint256",
          "name": "challengeId",
          "type": "uint256"
        },
        {
          "indexed": false,
          "internalType": "address",
          "name": "winner",
          "type": "address"
        },
        {
          "indexed": false,
          "internalType": "uint256",
          "name": "amount",
          "type": "uint256"
        }
      ],
      "name": "RewardDistributed",
      "type": "event"
    },
    {
      "anonymous": false,
      "inputs": [
        {
          "indexed": false,
          "internalType": "uint256",
          "name": "challengeId",
          "type": "uint256"
        },
        {
          "indexed": false,
          "internalType": "address",
          "name": "submitter",
          "type": "address"
        },
        {
          "indexed": false,
          "internalType": "bytes32",
          "name": "solutionHash",
          "type": "bytes32"
        }
      ],
      "name": "SolutionSubmitted",
      "type": "event"
    },
    {
      "anonymous": false,
      "inputs": [
        {
          "indexed": false,
          "internalType": "uint256",
          "name": "challengeId",
          "type": "uint256"
        },
        {
          "indexed": false,
          "internalType": "address",
          "name": "verifier",
          "type": "address"
        },
        {
          "indexed": false,
          "internalType": "address",
          "name": "winner",
          "type": "address"
        }
      ],
      "name": "SolutionVerified",
      "type": "event"
    },
    {
      "inputs": [
        {
          "internalType": "uint256",
          "name": "_challengeId",
          "type": "uint256"
        }
      ],
      "name": "cancelChallenge",
      "outputs": [],
      "stateMutability": "nonpayable",
      "type": "function"
    },
    {
      "inputs": [
        {
          "internalType": "uint256",
          "name": "",
          "type": "uint256"
        }
      ],
      "name": "challengeCompleted",
      "outputs": [
        {
          "internalType": "bool",
          "name": "",
          "type": "bool"
        }
      ],
      "stateMutability": "view",
      "type": "function"
    },
    {
      "inputs": [],
      "name": "challengeIdCounter",
      "outputs": [
        {
          "internalType": "uint256",
          "name": "",
          "type": "uint256"
        }
      ],
      "stateMutability": "view",
      "type": "function"
    },
    {
      "inputs": [
        {
          "internalType": "uint256",
          "name": "",
          "type": "uint256"
        },
        {
          "internalType": "uint256",
          "name": "",
          "type": "uint256"
        }
      ],
      "name": "challengeSubmissions",
      "outputs": [
        {
          "internalType": "address",
          "name": "submitter",
          "type": "address"
        },
        {
          "internalType": "bytes32",
          "name": "solutionHash",
          "type": "bytes32"
        },
        {
          "internalType": "bool",
          "name": "isVerified",
          "type": "bool"
        },
        {
          "internalType": "uint256",
          "name": "submissionTime",
          "type": "uint256"
        }
      ],
      "stateMutability": "view",
      "type": "function"
    },
    {
      "inputs": [
        {
          "internalType": "uint256",
          "name": "",
          "type": "uint256"
        }
      ],
      "name": "challenges",
      "outputs": [
        {
          "internalType": "uint256",
          "name": "challengeId",
          "type": "uint256"
        },
        {
          "internalType": "address",
          "name": "creator",
          "type": "address"
        },
        {
          "internalType": "uint256",
          "name": "bountyAmount",
          "type": "uint256"
        },
        {
          "internalType": "string",
          "name": "title",
          "type": "string"
        },
        {
          "internalType": "string",
          "name": "description",
          "type": "string"
        },
        {
          "internalType": "string",
          "name": "requirements",
          "type": "string"
        },
        {
          "internalType": "enum CodeBounty.Status",
          "name": "challengeStatus",
          "type": "uint8"
        },
        {
          "internalType": "uint256",
          "name": "submissionsCount",
          "type": "uint256"
        },
        {
          "internalType": "uint256",
          "name": "startTime",
          "type": "uint256"
        },
        {
          "internalType": "uint256",
          "name": "duration",
          "type": "uint256"
        },
        {
          "internalType": "address",
          "name": "winner",
          "type": "address"
        }
      ],
      "stateMutability": "view",
      "type": "function"
    },
    {
      "inputs": [
        {
          "internalType": "string",
          "name": "_title",
          "type": "string"
        },
        {
          "internalType": "string",
          "name": "_description",
          "type": "string"
        },
        {
          "internalType": "string",
          "name": "_requirements",
          "type": "string"
        },
        {
          "internalType": "string[]",
          "name": "_tags",
          "type": "string[]"
        },
        {
          "internalType": "uint256",
          "name": "_bountyAmount",
          "type": "uint256"
        },
        {
          "internalType": "uint256",
          "name": "_durationInDays",
          "type": "uint256"
        }
      ],
      "name": "createChallenge",
      "outputs": [],
      "stateMutability": "payable",
      "type": "function"
    },
    {
      "inputs": [
        {
          "internalType": "uint256",
          "name": "_challengeId",
          "type": "uint256"
        },
        {
          "internalType": "address",
          "name": "winner",
          "type": "address"
        }
      ],
      "name": "distributeReward",
      "outputs": [],
      "stateMutability": "nonpayable",
      "type": "function"
    },
    {
      "inputs": [],
      "name": "getActiveChallenges",
      "outputs": [
        {
          "components": [
            {
              "internalType": "uint256",
              "name": "challengeId",
              "type": "uint256"
            },
            {
              "internalType": "address",
              "name": "creator",
              "type": "address"
            },
            {
              "internalType": "uint256",
              "name": "bountyAmount",
              "type": "uint256"
            },
            {
              "internalType": "string",
              "name": "title",
              "type": "string"
            },
            {
              "internalType": "string",
              "name": "description",
              "type": "string"
            },
            {
              "internalType": "string",
              "name": "requirements",
              "type": "string"
            },
            {
              "internalType": "string[]",
              "name": "tags",
              "type": "string[]"
            },
            {
              "internalType": "enum CodeBounty.Status",
              "name": "challengeStatus",
              "type": "uint8"
            },
            {
              "internalType": "uint256",
              "name": "submissionsCount",
              "type": "uint256"
            },
            {
              "internalType": "uint256",
              "name": "startTime",
              "type": "uint256"
            },
            {
              "internalType": "uint256",
              "name": "duration",
              "type": "uint256"
            },
            {
              "internalType": "address",
              "name": "winner",
              "type": "address"
            }
          ],
          "internalType": "struct CodeBounty.Challenge[]",
          "name": "",
          "type": "tuple[]"
        }
      ],
      "stateMutability": "nonpayable",
      "type": "function"
    },
    {
      "inputs": [],
      "name": "getCancelledChallenges",
      "outputs": [
        {
          "components": [
            {
              "internalType": "uint256",
              "name": "challengeId",
              "type": "uint256"
            },
            {
              "internalType": "address",
              "name": "creator",
              "type": "address"
            },
            {
              "internalType": "uint256",
              "name": "bountyAmount",
              "type": "uint256"
            },
            {
              "internalType": "string",
              "name": "title",
              "type": "string"
            },
            {
              "internalType": "string",
              "name": "description",
              "type": "string"
            },
            {
              "internalType": "string",
              "name": "requirements",
              "type": "string"
            },
            {
              "internalType": "string[]",
              "name": "tags",
              "type": "string[]"
            },
            {
              "internalType": "enum CodeBounty.Status",
              "name": "challengeStatus",
              "type": "uint8"
            },
            {
              "internalType": "uint256",
              "name": "submissionsCount",
              "type": "uint256"
            },
            {
              "internalType": "uint256",
              "name": "startTime",
              "type": "uint256"
            },
            {
              "internalType": "uint256",
              "name": "duration",
              "type": "uint256"
            },
            {
              "internalType": "address",
              "name": "winner",
              "type": "address"
            }
          ],
          "internalType": "struct CodeBounty.Challenge[]",
          "name": "",
          "type": "tuple[]"
        }
      ],
      "stateMutability": "view",
      "type": "function"
    },
    {
      "inputs": [
        {
          "internalType": "uint256",
          "name": "_challengeId",
          "type": "uint256"
        }
      ],
      "name": "getChallengeRemainingTime",
      "outputs": [
        {
          "internalType": "uint256",
          "name": "",
          "type": "uint256"
        }
      ],
      "stateMutability": "view",
      "type": "function"
    },
    {
      "inputs": [],
      "name": "getCompletedChallenges",
      "outputs": [
        {
          "components": [
            {
              "internalType": "uint256",
              "name": "challengeId",
              "type": "uint256"
            },
            {
              "internalType": "address",
              "name": "creator",
              "type": "address"
            },
            {
              "internalType": "uint256",
              "name": "bountyAmount",
              "type": "uint256"
            },
            {
              "internalType": "string",
              "name": "title",
              "type": "string"
            },
            {
              "internalType": "string",
              "name": "description",
              "type": "string"
            },
            {
              "internalType": "string",
              "name": "requirements",
              "type": "string"
            },
            {
              "internalType": "string[]",
              "name": "tags",
              "type": "string[]"
            },
            {
              "internalType": "enum CodeBounty.Status",
              "name": "challengeStatus",
              "type": "uint8"
            },
            {
              "internalType": "uint256",
              "name": "submissionsCount",
              "type": "uint256"
            },
            {
              "internalType": "uint256",
              "name": "startTime",
              "type": "uint256"
            },
            {
              "internalType": "uint256",
              "name": "duration",
              "type": "uint256"
            },
            {
              "internalType": "address",
              "name": "winner",
              "type": "address"
            }
          ],
          "internalType": "struct CodeBounty.Challenge[]",
          "name": "",
          "type": "tuple[]"
        }
      ],
      "stateMutability": "view",
      "type": "function"
    },
    {
      "inputs": [],
      "name": "getExpiredChallenges",
      "outputs": [
        {
          "components": [
            {
              "internalType": "uint256",
              "name": "challengeId",
              "type": "uint256"
            },
            {
              "internalType": "address",
              "name": "creator",
              "type": "address"
            },
            {
              "internalType": "uint256",
              "name": "bountyAmount",
              "type": "uint256"
            },
            {
              "internalType": "string",
              "name": "title",
              "type": "string"
            },
            {
              "internalType": "string",
              "name": "description",
              "type": "string"
            },
            {
              "internalType": "string",
              "name": "requirements",
              "type": "string"
            },
            {
              "internalType": "string[]",
              "name": "tags",
              "type": "string[]"
            },
            {
              "internalType": "enum CodeBounty.Status",
              "name": "challengeStatus",
              "type": "uint8"
            },
            {
              "internalType": "uint256",
              "name": "submissionsCount",
              "type": "uint256"
            },
            {
              "internalType": "uint256",
              "name": "startTime",
              "type": "uint256"
            },
            {
              "internalType": "uint256",
              "name": "duration",
              "type": "uint256"
            },
            {
              "internalType": "address",
              "name": "winner",
              "type": "address"
            }
          ],
          "internalType": "struct CodeBounty.Challenge[]",
          "name": "",
          "type": "tuple[]"
        }
      ],
      "stateMutability": "view",
      "type": "function"
    },
    {
      "inputs": [
        {
          "internalType": "address",
          "name": "_user",
          "type": "address"
        }
      ],
      "name": "getUserStats",
      "outputs": [
        {
          "internalType": "uint256",
          "name": "winCount",
          "type": "uint256"
        },
        {
          "internalType": "uint256",
          "name": "submissionCount",
          "type": "uint256"
        },
        {
          "internalType": "uint256",
          "name": "totalRewards",
          "type": "uint256"
        }
      ],
      "stateMutability": "view",
      "type": "function"
    },
    {
      "inputs": [],
      "name": "owner",
      "outputs": [
        {
          "internalType": "address",
          "name": "",
          "type": "address"
        }
      ],
      "stateMutability": "view",
      "type": "function"
    },
    {
      "inputs": [
        {
          "internalType": "uint256",
          "name": "_challengeId",
          "type": "uint256"
        }
      ],
      "name": "resolveExpiredChallenge",
      "outputs": [],
      "stateMutability": "nonpayable",
      "type": "function"
    },
    {
      "inputs": [
        {
          "internalType": "uint256",
          "name": "_challengeId",
          "type": "uint256"
        },
        {
          "internalType": "bytes32",
          "name": "_solutionHash",
          "type": "bytes32"
        }
      ],
      "name": "submitSolution",
      "outputs": [],
      "stateMutability": "nonpayable",
      "type": "function"
    },
    {
      "inputs": [],
      "name": "totalSubmissionsCount",
      "outputs": [
        {
          "internalType": "uint256",
          "name": "",
          "type": "uint256"
        }
      ],
      "stateMutability": "view",
      "type": "function"
    },
    {
      "inputs": [
        {
          "internalType": "address",
          "name": "",
          "type": "address"
        }
      ],
      "name": "userRewarded",
      "outputs": [
        {
          "internalType": "uint256",
          "name": "",
          "type": "uint256"
        }
      ],
      "stateMutability": "view",
      "type": "function"
    },
    {
      "inputs": [
        {
          "internalType": "address",
          "name": "",
          "type": "address"
        }
      ],
      "name": "userStats",
      "outputs": [
        {
          "internalType": "uint256",
          "name": "winCount",
          "type": "uint256"
        },
        {
          "internalType": "uint256",
          "name": "submissionCount",
          "type": "uint256"
        },
        {
          "internalType": "uint256",
          "name": "totalRewards",
          "type": "uint256"
        }
      ],
      "stateMutability": "view",
      "type": "function"
    },
    {
      "inputs": [],
      "name": "viewActiveChallenges",
      "outputs": [
        {
          "components": [
            {
              "internalType": "uint256",
              "name": "challengeId",
              "type": "uint256"
            },
            {
              "internalType": "address",
              "name": "creator",
              "type": "address"
            },
            {
              "internalType": "uint256",
              "name": "bountyAmount",
              "type": "uint256"
            },
            {
              "internalType": "string",
              "name": "title",
              "type": "string"
            },
            {
              "internalType": "string",
              "name": "description",
              "type": "string"
            },
            {
              "internalType": "string",
              "name": "requirements",
              "type": "string"
            },
            {
              "internalType": "string[]",
              "name": "tags",
              "type": "string[]"
            },
            {
              "internalType": "enum CodeBounty.Status",
              "name": "challengeStatus",
              "type": "uint8"
            },
            {
              "internalType": "uint256",
              "name": "submissionsCount",
              "type": "uint256"
            },
            {
              "internalType": "uint256",
              "name": "startTime",
              "type": "uint256"
            },
            {
              "internalType": "uint256",
              "name": "duration",
              "type": "uint256"
            },
            {
              "internalType": "address",
              "name": "winner",
              "type": "address"
            }
          ],
          "internalType": "struct CodeBounty.Challenge[]",
          "name": "",
          "type": "tuple[]"
        }
      ],
      "stateMutability": "view",
      "type": "function"
    },
    {
      "inputs": [],
      "name": "withdrawRewards",
      "outputs": [],
      "stateMutability": "nonpayable",
      "type": "function"
    }
  ],
  "bytecode": "0x608060405234801561001057600080fd5b5033600160006101000a81548173ffffffffffffffffffffffffffffffffffffffff021916908373ffffffffffffffffffffffffffffffffffffffff1602179055506151b4806100616000396000f3fe60806040526004361061012a5760003560e01c80638a65d874116100ab578063a5a7c3361161006f578063a5a7c3361461040a578063c6f20ddb14610447578063c7b8981c14610472578063de4ba26d14610489578063e1d45577146104b4578063e917fbf2146104dd5761012a565b80638a65d874146103075780638da5cb5b146103465780638f1d3776146103715780638f4125ea146103b8578063a41483e3146103e15761012a565b80634adf3051116100f25780634adf3051146102165780634e43603a14610241578063571446db146102805780635f77bf64146102c0578063791d7fc9146102eb5761012a565b806309f2313e1461012f5780631f47991e1461015a578063359249df1461018557806343bcc29b146101b0578063481c4643146101d9575b600080fd5b34801561013b57600080fd5b5061014461051a565b6040516101519190613f82565b60405180910390f35b34801561016657600080fd5b5061016f610a68565b60405161017c9190613f82565b60405180910390f35b34801561019157600080fd5b5061019a611072565b6040516101a79190613f82565b60405180910390f35b3480156101bc57600080fd5b506101d760048036038101906101d29190614010565b611640565b005b3480156101e557600080fd5b5061020060048036038101906101fb9190614050565b611b6f565b60405161020d9190614098565b60405180910390f35b34801561022257600080fd5b5061022b611b8f565b60405161023891906140c2565b60405180910390f35b34801561024d57600080fd5b50610268600480360381019061026391906140dd565b611b95565b6040516102779392919061410a565b60405180910390f35b34801561028c57600080fd5b506102a760048036038101906102a29190614141565b611bf9565b6040516102b794939291906141a9565b60405180910390f35b3480156102cc57600080fd5b506102d5611c73565b6040516102e291906140c2565b60405180910390f35b61030560048036038101906103009190614409565b611c79565b005b34801561031357600080fd5b5061032e600480360381019061032991906140dd565b611f6a565b60405161033d9392919061410a565b60405180910390f35b34801561035257600080fd5b5061035b611f94565b6040516103689190614506565b60405180910390f35b34801561037d57600080fd5b5061039860048036038101906103939190614050565b611fba565b6040516103af9b9a9998979695949392919061457a565b60405180910390f35b3480156103c457600080fd5b506103df60048036038101906103da9190614050565b6121f9565b005b3480156103ed57600080fd5b5061040860048036038101906104039190614050565b612205565b005b34801561041657600080fd5b50610431600480360381019061042c91906140dd565b612466565b60405161043e91906140c2565b60405180910390f35b34801561045357600080fd5b5061045c61247e565b6040516104699190613f82565b60405180910390f35b34801561047e57600080fd5b506104876129ca565b005b34801561049557600080fd5b5061049e612ae0565b6040516104ab9190613f82565b60405180910390f35b3480156104c057600080fd5b506104db60048036038101906104d69190614666565b61302e565b005b3480156104e957600080fd5b5061050460048036038101906104ff9190614050565b6133a5565b60405161051191906140c2565b60405180910390f35b6060600080600190505b600054811161059e576001600381111561054157610540613d5c565b5b6003600083815260200190815260200160002060070160009054906101000a900460ff16600381111561057757610576613d5c565b5b0361058b578180610587906146d5565b9250505b8080610596906146d5565b915050610524565b5060008167ffffffffffffffff8111156105bb576105ba6141f8565b5b6040519080825280602002602001820160405280156105f457816020015b6105e1613a0b565b8152602001906001900390816105d95790505b509050600080600190505b6000548111610a5e576001600381111561061c5761061b613d5c565b5b6003600083815260200190815260200160002060070160009054906101000a900460ff16600381111561065257610651613d5c565b5b03610a4b576003600082815260200190815260200160002060405180610180016040529081600082015481526020016001820160009054906101000a900473ffffffffffffffffffffffffffffffffffffffff1673ffffffffffffffffffffffffffffffffffffffff1673ffffffffffffffffffffffffffffffffffffffff168152602001600282015481526020016003820180546106f09061474c565b80601f016020809104026020016040519081016040528092919081815260200182805461071c9061474c565b80156107695780601f1061073e57610100808354040283529160200191610769565b820191906000526020600020905b81548152906001019060200180831161074c57829003601f168201915b505050505081526020016004820180546107829061474c565b80601f01602080910402602001604051908101604052809291908181526020018280546107ae9061474c565b80156107fb5780601f106107d0576101008083540402835291602001916107fb565b820191906000526020600020905b8154815290600101906020018083116107de57829003601f168201915b505050505081526020016005820180546108149061474c565b80601f01602080910402602001604051908101604052809291908181526020018280546108409061474c565b801561088d5780601f106108625761010080835404028352916020019161088d565b820191906000526020600020905b81548152906001019060200180831161087057829003601f168201915b5050505050815260200160068201805480602002602001604051908101604052809291908181526020016000905b828210156109675783829060005260206000200180546108da9061474c565b80601f01602080910402602001604051908101604052809291908181526020018280546109069061474c565b80156109535780601f1061092857610100808354040283529160200191610953565b820191906000526020600020905b81548152906001019060200180831161093657829003601f168201915b5050505050815260200190600101906108bb565b5050505081526020016007820160009054906101000a900460ff16600381111561099457610993613d5c565b5b60038111156109a6576109a5613d5c565b5b81526020016008820154815260200160098201548152602001600a8201548152602001600b820160009054906101000a900473ffffffffffffffffffffffffffffffffffffffff1673ffffffffffffffffffffffffffffffffffffffff1673ffffffffffffffffffffffffffffffffffffffff1681525050838381518110610a3157610a3061477d565b5b60200260200101819052508180610a47906146d5565b9250505b8080610a56906146d5565b9150506105ff565b5081935050505090565b60606000600190505b6000548111610b255760006003811115610a8e57610a8d613d5c565b5b6003600083815260200190815260200160002060070160009054906101000a900460ff166003811115610ac457610ac3613d5c565b5b03610b125760036000828152602001908152602001600020600a01546003600083815260200190815260200160002060090154610b0191906147ac565b4210610b1157610b1081613459565b5b5b8080610b1d906146d5565b915050610a71565b50600080600190505b6000548111610ba85760006003811115610b4b57610b4a613d5c565b5b6003600083815260200190815260200160002060070160009054906101000a900460ff166003811115610b8157610b80613d5c565b5b03610b95578180610b91906146d5565b9250505b8080610ba0906146d5565b915050610b2e565b5060008167ffffffffffffffff811115610bc557610bc46141f8565b5b604051908082528060200260200182016040528015610bfe57816020015b610beb613a0b565b815260200190600190039081610be35790505b509050600080600190505b60005481116110685760006003811115610c2657610c25613d5c565b5b6003600083815260200190815260200160002060070160009054906101000a900460ff166003811115610c5c57610c5b613d5c565b5b03611055576003600082815260200190815260200160002060405180610180016040529081600082015481526020016001820160009054906101000a900473ffffffffffffffffffffffffffffffffffffffff1673ffffffffffffffffffffffffffffffffffffffff1673ffffffffffffffffffffffffffffffffffffffff16815260200160028201548152602001600382018054610cfa9061474c565b80601f0160208091040260200160405190810160405280929190818152602001828054610d269061474c565b8015610d735780601f10610d4857610100808354040283529160200191610d73565b820191906000526020600020905b815481529060010190602001808311610d5657829003601f168201915b50505050508152602001600482018054610d8c9061474c565b80601f0160208091040260200160405190810160405280929190818152602001828054610db89061474c565b8015610e055780601f10610dda57610100808354040283529160200191610e05565b820191906000526020600020905b815481529060010190602001808311610de857829003601f168201915b50505050508152602001600582018054610e1e9061474c565b80601f0160208091040260200160405190810160405280929190818152602001828054610e4a9061474c565b8015610e975780601f10610e6c57610100808354040283529160200191610e97565b820191906000526020600020905b815481529060010190602001808311610e7a57829003601f168201915b5050505050815260200160068201805480602002602001604051908101604052809291908181526020016000905b82821015610f71578382906000526020600020018054610ee49061474c565b80601f0160208091040260200160405190810160405280929190818152602001828054610f109061474c565b8015610f5d5780601f10610f3257610100808354040283529160200191610f5d565b820191906000526020600020905b815481529060010190602001808311610f4057829003601f168201915b505050505081526020019060010190610ec5565b5050505081526020016007820160009054906101000a900460ff166003811115610f9e57610f9d613d5c565b5b6003811115610fb057610faf613d5c565b5b81526020016008820154815260200160098201548152602001600a8201548152602001600b820160009054906101000a900473ffffffffffffffffffffffffffffffffffffffff1673ffffffffffffffffffffffffffffffffffffffff1673ffffffffffffffffffffffffffffffffffffffff168152505083838151811061103b5761103a61477d565b5b60200260200101819052508180611051906146d5565b9250505b8080611060906146d5565b915050610c09565b5081935050505090565b6060600080600190505b6000548111611136576000600381111561109957611098613d5c565b5b6003600083815260200190815260200160002060070160009054906101000a900460ff1660038111156110cf576110ce613d5c565b5b036111235760036000828152602001908152602001600020600a0154600360008381526020019081526020016000206009015461110c91906147ac565b42101561112257818061111e906146d5565b9250505b5b808061112e906146d5565b91505061107c565b5060008167ffffffffffffffff811115611153576111526141f8565b5b60405190808252806020026020018201604052801561118c57816020015b611179613a0b565b8152602001906001900390816111715790505b509050600080600190505b600054811161163657600060038111156111b4576111b3613d5c565b5b6003600083815260200190815260200160002060070160009054906101000a900460ff1660038111156111ea576111e9613d5c565b5b036116235760036000828152602001908152602001600020600a0154600360008381526020019081526020016000206009015461122791906147ac565b421015611622576003600082815260200190815260200160002060405180610180016040529081600082015481526020016001820160009054906101000a900473ffffffffffffffffffffffffffffffffffffffff1673ffffffffffffffffffffffffffffffffffffffff1673ffffffffffffffffffffffffffffffffffffffff168152602001600282015481526020016003820180546112c79061474c565b80601f01602080910402602001604051908101604052809291908181526020018280546112f39061474c565b80156113405780601f1061131557610100808354040283529160200191611340565b820191906000526020600020905b81548152906001019060200180831161132357829003601f168201915b505050505081526020016004820180546113599061474c565b80601f01602080910402602001604051908101604052809291908181526020018280546113859061474c565b80156113d25780601f106113a7576101008083540402835291602001916113d2565b820191906000526020600020905b8154815290600101906020018083116113b557829003601f168201915b505050505081526020016005820180546113eb9061474c565b80601f01602080910402602001604051908101604052809291908181526020018280546114179061474c565b80156114645780601f1061143957610100808354040283529160200191611464565b820191906000526020600020905b81548152906001019060200180831161144757829003601f168201915b5050505050815260200160068201805480602002602001604051908101604052809291908181526020016000905b8282101561153e5783829060005260206000200180546114b19061474c565b80601f01602080910402602001604051908101604052809291908181526020018280546114dd9061474c565b801561152a5780601f106114ff5761010080835404028352916020019161152a565b820191906000526020600020905b81548152906001019060200180831161150d57829003601f168201915b505050505081526020019060010190611492565b5050505081526020016007820160009054906101000a900460ff16600381111561156b5761156a613d5c565b5b600381111561157d5761157c613d5c565b5b81526020016008820154815260200160098201548152602001600a8201548152602001600b820160009054906101000a900473ffffffffffffffffffffffffffffffffffffffff1673ffffffffffffffffffffffffffffffffffffffff1673ffffffffffffffffffffffffffffffffffffffff16815250508383815181106116085761160761477d565b5b6020026020010181905250818061161e906146d5565b9250505b5b808061162e906146d5565b915050611197565b5081935050505090565b816003600082815260200190815260200160002060010160009054906101000a900473ffffffffffffffffffffffffffffffffffffffff1673ffffffffffffffffffffffffffffffffffffffff163373ffffffffffffffffffffffffffffffffffffffff16146116e5576040517f08c379a00000000000000000000000000000000000000000000000000000000081526004016116dc90614852565b60405180910390fd5b600060038111156116f9576116f8613d5c565b5b6003600085815260200190815260200160002060070160009054906101000a900460ff16600381111561172f5761172e613d5c565b5b1461176f576040517f08c379a0000000000000000000000000000000000000000000000000000000008152600401611766906148be565b60405180910390fd5b6005600084815260200190815260200160002060009054906101000a900460ff16156117d0576040517f08c379a00000000000000000000000000000000000000000000000000000000081526004016117c79061492a565b60405180910390fd5b6000805b60046000868152602001908152602001600020805490508110156118e4578373ffffffffffffffffffffffffffffffffffffffff1660046000878152602001908152602001600020828154811061182e5761182d61477d565b5b906000526020600020906004020160000160009054906101000a900473ffffffffffffffffffffffffffffffffffffffff1673ffffffffffffffffffffffffffffffffffffffff161480156118c357506004600086815260200190815260200160002081815481106118a3576118a261477d565b5b906000526020600020906004020160020160009054906101000a900460ff165b156118d157600191506118e4565b80806118dc906146d5565b9150506117d4565b5080611925576040517f08c379a000000000000000000000000000000000000000000000000000000000815260040161191c906149bc565b60405180910390fd5b8260036000868152602001908152602001600020600b0160006101000a81548173ffffffffffffffffffffffffffffffffffffffff021916908373ffffffffffffffffffffffffffffffffffffffff1602179055506003600085815260200190815260200160002060020154600660008573ffffffffffffffffffffffffffffffffffffffff1673ffffffffffffffffffffffffffffffffffffffff16815260200190815260200160002060008282546119df91906147ac565b9250508190555060016003600086815260200190815260200160002060070160006101000a81548160ff02191690836003811115611a2057611a1f613d5c565b5b021790555060016005600086815260200190815260200160002060006101000a81548160ff021916908315150217905550600760008473ffffffffffffffffffffffffffffffffffffffff1673ffffffffffffffffffffffffffffffffffffffff1681526020019081526020016000206000016000815480929190611aa4906146d5565b91905055506003600085815260200190815260200160002060020154600760008573ffffffffffffffffffffffffffffffffffffffff1673ffffffffffffffffffffffffffffffffffffffff1681526020019081526020016000206002016000828254611b1191906147ac565b925050819055507fab7542bafced3da2d8c881cb2dd1de859fac7c20d3650d2902ad389a64e0888384846003600088815260200190815260200160002060020154604051611b61939291906149dc565b60405180910390a150505050565b60056020528060005260406000206000915054906101000a900460ff1681565b60005481565b600080600080600760008673ffffffffffffffffffffffffffffffffffffffff1673ffffffffffffffffffffffffffffffffffffffff1681526020019081526020016000209050806000015481600101548260020154935093509350509193909250565b60046020528160005260406000208181548110611c1557600080fd5b9060005260206000209060040201600091509150508060000160009054906101000a900473ffffffffffffffffffffffffffffffffffffffff16908060010154908060020160009054906101000a900460ff16908060030154905084565b60025481565b81341015611cbc576040517f08c379a0000000000000000000000000000000000000000000000000000000008152600401611cb390614a85565b60405180910390fd5b60008111611cff576040517f08c379a0000000000000000000000000000000000000000000000000000000008152600401611cf690614af1565b60405180910390fd5b600080815480929190611d11906146d5565b919050555060405180610180016040528060005481526020013373ffffffffffffffffffffffffffffffffffffffff16815260200183815260200187815260200186815260200185815260200184815260200160006003811115611d7857611d77613d5c565b5b8152602001600081526020014281526020016201518083611d999190614b11565b8152602001600073ffffffffffffffffffffffffffffffffffffffff1681525060036000805481526020019081526020016000206000820151816000015560208201518160010160006101000a81548173ffffffffffffffffffffffffffffffffffffffff021916908373ffffffffffffffffffffffffffffffffffffffff160217905550604082015181600201556060820151816003019081611e3d9190614cff565b506080820151816004019081611e539190614cff565b5060a0820151816005019081611e699190614cff565b5060c0820151816006019080519060200190611e86929190613aaa565b5060e08201518160070160006101000a81548160ff02191690836003811115611eb257611eb1613d5c565b5b02179055506101008201518160080155610120820151816009015561014082015181600a015561016082015181600b0160006101000a81548173ffffffffffffffffffffffffffffffffffffffff021916908373ffffffffffffffffffffffffffffffffffffffff1602179055509050507f7c9c42ea4a98ff02e597498c394568923c74c2d3e031718ad08dbb59a42f03eb600054338484604051611f5a9493929190614dd1565b60405180910390a1505050505050565b60076020528060005260406000206000915090508060000154908060010154908060020154905083565b600160009054906101000a900473ffffffffffffffffffffffffffffffffffffffff1681565b60036020528060005260406000206000915090508060000154908060010160009054906101000a900473ffffffffffffffffffffffffffffffffffffffff169080600201549080600301805461200f9061474c565b80601f016020809104026020016040519081016040528092919081815260200182805461203b9061474c565b80156120885780601f1061205d57610100808354040283529160200191612088565b820191906000526020600020905b81548152906001019060200180831161206b57829003601f168201915b50505050509080600401805461209d9061474c565b80601f01602080910402602001604051908101604052809291908181526020018280546120c99061474c565b80156121165780601f106120eb57610100808354040283529160200191612116565b820191906000526020600020905b8154815290600101906020018083116120f957829003601f168201915b50505050509080600501805461212b9061474c565b80601f01602080910402602001604051908101604052809291908181526020018280546121579061474c565b80156121a45780601f10612179576101008083540402835291602001916121a4565b820191906000526020600020905b81548152906001019060200180831161218757829003601f168201915b5050505050908060070160009054906101000a900460ff169080600801549080600901549080600a01549080600b0160009054906101000a900473ffffffffffffffffffffffffffffffffffffffff1690508b565b61220281613459565b50565b806003600082815260200190815260200160002060010160009054906101000a900473ffffffffffffffffffffffffffffffffffffffff1673ffffffffffffffffffffffffffffffffffffffff163373ffffffffffffffffffffffffffffffffffffffff16146122aa576040517f08c379a00000000000000000000000000000000000000000000000000000000081526004016122a190614852565b60405180910390fd5b600060038111156122be576122bd613d5c565b5b6003600084815260200190815260200160002060070160009054906101000a900460ff1660038111156122f4576122f3613d5c565b5b14612334576040517f08c379a000000000000000000000000000000000000000000000000000000000815260040161232b90614e88565b60405180910390fd5b600060046000848152602001908152602001600020805490501461238d576040517f08c379a000000000000000000000000000000000000000000000000000000000815260040161238490614f1a565b60405180910390fd5b3373ffffffffffffffffffffffffffffffffffffffff166108fc60036000858152602001908152602001600020600201549081150290604051600060405180830381858888f193505050501580156123e9573d6000803e3d6000fd5b5060026003600084815260200190815260200160002060070160006101000a81548160ff0219169083600381111561242457612423613d5c565b5b02179055507f331f4510d26912f0e9f474e9a3151c359ce5d28378f1151479d27ec63236fa09823360405161245a929190614f3a565b60405180910390a15050565b60066020528060005260406000206000915090505481565b6060600080600190505b6000548111612501576003808111156124a4576124a3613d5c565b5b6003600083815260200190815260200160002060070160009054906101000a900460ff1660038111156124da576124d9613d5c565b5b036124ee5781806124ea906146d5565b9250505b80806124f9906146d5565b915050612488565b5060008167ffffffffffffffff81111561251e5761251d6141f8565b5b60405190808252806020026020018201604052801561255757816020015b612544613a0b565b81526020019060019003908161253c5790505b509050600080600190505b60005481116129c05760038081111561257e5761257d613d5c565b5b6003600083815260200190815260200160002060070160009054906101000a900460ff1660038111156125b4576125b3613d5c565b5b036129ad576003600082815260200190815260200160002060405180610180016040529081600082015481526020016001820160009054906101000a900473ffffffffffffffffffffffffffffffffffffffff1673ffffffffffffffffffffffffffffffffffffffff1673ffffffffffffffffffffffffffffffffffffffff168152602001600282015481526020016003820180546126529061474c565b80601f016020809104026020016040519081016040528092919081815260200182805461267e9061474c565b80156126cb5780601f106126a0576101008083540402835291602001916126cb565b820191906000526020600020905b8154815290600101906020018083116126ae57829003601f168201915b505050505081526020016004820180546126e49061474c565b80601f01602080910402602001604051908101604052809291908181526020018280546127109061474c565b801561275d5780601f106127325761010080835404028352916020019161275d565b820191906000526020600020905b81548152906001019060200180831161274057829003601f168201915b505050505081526020016005820180546127769061474c565b80601f01602080910402602001604051908101604052809291908181526020018280546127a29061474c565b80156127ef5780601f106127c4576101008083540402835291602001916127ef565b820191906000526020600020905b8154815290600101906020018083116127d257829003601f168201915b5050505050815260200160068201805480602002602001604051908101604052809291908181526020016000905b828210156128c957838290600052602060002001805461283c9061474c565b80601f01602080910402602001604051908101604052809291908181526020018280546128689061474c565b80156128b55780601f1061288a576101008083540402835291602001916128b5565b820191906000526020600020905b81548152906001019060200180831161289857829003601f168201915b50505050508152602001906001019061281d565b5050505081526020016007820160009054906101000a900460ff1660038111156128f6576128f5613d5c565b5b600381111561290857612907613d5c565b5b81526020016008820154815260200160098201548152602001600a8201548152602001600b820160009054906101000a900473ffffffffffffffffffffffffffffffffffffffff1673ffffffffffffffffffffffffffffffffffffffff1673ffffffffffffffffffffffffffffffffffffffff16815250508383815181106129935761299261477d565b5b602002602001018190525081806129a9906146d5565b9250505b80806129b8906146d5565b915050612562565b5081935050505090565b6000600660003373ffffffffffffffffffffffffffffffffffffffff1673ffffffffffffffffffffffffffffffffffffffff16815260200190815260200160002054905060008111612a51576040517f08c379a0000000000000000000000000000000000000000000000000000000008152600401612a4890614faf565b60405180910390fd5b6000600660003373ffffffffffffffffffffffffffffffffffffffff1673ffffffffffffffffffffffffffffffffffffffff168152602001908152602001600020819055503373ffffffffffffffffffffffffffffffffffffffff166108fc829081150290604051600060405180830381858888f19350505050158015612adc573d6000803e3d6000fd5b5050565b6060600080600190505b6000548111612b645760026003811115612b0757612b06613d5c565b5b6003600083815260200190815260200160002060070160009054906101000a900460ff166003811115612b3d57612b3c613d5c565b5b03612b51578180612b4d906146d5565b9250505b8080612b5c906146d5565b915050612aea565b5060008167ffffffffffffffff811115612b8157612b806141f8565b5b604051908082528060200260200182016040528015612bba57816020015b612ba7613a0b565b815260200190600190039081612b9f5790505b509050600080600190505b60005481116130245760026003811115612be257612be1613d5c565b5b6003600083815260200190815260200160002060070160009054906101000a900460ff166003811115612c1857612c17613d5c565b5b03613011576003600082815260200190815260200160002060405180610180016040529081600082015481526020016001820160009054906101000a900473ffffffffffffffffffffffffffffffffffffffff1673ffffffffffffffffffffffffffffffffffffffff1673ffffffffffffffffffffffffffffffffffffffff16815260200160028201548152602001600382018054612cb69061474c565b80601f0160208091040260200160405190810160405280929190818152602001828054612ce29061474c565b8015612d2f5780601f10612d0457610100808354040283529160200191612d2f565b820191906000526020600020905b815481529060010190602001808311612d1257829003601f168201915b50505050508152602001600482018054612d489061474c565b80601f0160208091040260200160405190810160405280929190818152602001828054612d749061474c565b8015612dc15780601f10612d9657610100808354040283529160200191612dc1565b820191906000526020600020905b815481529060010190602001808311612da457829003601f168201915b50505050508152602001600582018054612dda9061474c565b80601f0160208091040260200160405190810160405280929190818152602001828054612e069061474c565b8015612e535780601f10612e2857610100808354040283529160200191612e53565b820191906000526020600020905b815481529060010190602001808311612e3657829003601f168201915b5050505050815260200160068201805480602002602001604051908101604052809291908181526020016000905b82821015612f2d578382906000526020600020018054612ea09061474c565b80601f0160208091040260200160405190810160405280929190818152602001828054612ecc9061474c565b8015612f195780601f10612eee57610100808354040283529160200191612f19565b820191906000526020600020905b815481529060010190602001808311612efc57829003601f168201915b505050505081526020019060010190612e81565b5050505081526020016007820160009054906101000a900460ff166003811115612f5a57612f59613d5c565b5b6003811115612f6c57612f6b613d5c565b5b81526020016008820154815260200160098201548152602001600a8201548152602001600b820160009054906101000a900473ffffffffffffffffffffffffffffffffffffffff1673ffffffffffffffffffffffffffffffffffffffff1673ffffffffffffffffffffffffffffffffffffffff1681525050838381518110612ff757612ff661477d565b5b6020026020010181905250818061300d906146d5565b9250505b808061301c906146d5565b915050612bc5565b5081935050505090565b8160036000828152602001908152602001600020600a0154600360008381526020019081526020016000206009015461306791906147ac565b42106130a8576040517f08c379a000000000000000000000000000000000000000000000000000000000815260040161309f9061501b565b60405180910390fd5b6003600084815260200190815260200160002060010160009054906101000a900473ffffffffffffffffffffffffffffffffffffffff1673ffffffffffffffffffffffffffffffffffffffff163373ffffffffffffffffffffffffffffffffffffffff160361314c576040517f08c379a000000000000000000000000000000000000000000000000000000000815260040161314390615087565b60405180910390fd5b600060038111156131605761315f613d5c565b5b6003600085815260200190815260200160002060070160009054906101000a900460ff16600381111561319657613195613d5c565b5b146131d6576040517f08c379a00000000000000000000000000000000000000000000000000000000081526004016131cd906148be565b60405180910390fd5b6004600084815260200190815260200160002060405180608001604052803373ffffffffffffffffffffffffffffffffffffffff16815260200184815260200160011515815260200142815250908060018154018082558091505060019003906000526020600020906004020160009091909190915060008201518160000160006101000a81548173ffffffffffffffffffffffffffffffffffffffff021916908373ffffffffffffffffffffffffffffffffffffffff1602179055506020820151816001015560408201518160020160006101000a81548160ff0219169083151502179055506060820151816003015550506003600084815260200190815260200160002060080160008154809291906132f0906146d5565b919050555060026000815480929190613308906146d5565b9190505550600760003373ffffffffffffffffffffffffffffffffffffffff1673ffffffffffffffffffffffffffffffffffffffff1681526020019081526020016000206001016000815480929190613360906146d5565b91905055507f09ac6a172865e35166d6f33bd99d072740d79f99349a94047863e2f12bb7aac4833384604051613398939291906150a7565b60405180910390a1505050565b600080821180156133b857506000548211155b6133f7576040517f08c379a00000000000000000000000000000000000000000000000000000000081526004016133ee9061512a565b60405180910390fd5b600060036000848152602001908152602001600020600a0154600360008581526020019081526020016000206009015461343191906147ac565b9050804210613444576000915050613454565b4281613450919061514a565b9150505b919050565b60006003600083815260200190815260200160002090506000600381111561348457613483613d5c565b5b8160070160009054906101000a900460ff1660038111156134a8576134a7613d5c565b5b1415806134c7575080600a015481600901546134c491906147ac565b42105b806134ef57506005600083815260200190815260200160002060009054906101000a900460ff165b156134fa5750613a08565b60006004600084815260200190815260200160002080549050111561392f576000805b60046000858152602001908152602001600020805490508110156135f5576004600085815260200190815260200160002081815481106135605761355f61477d565b5b906000526020600020906004020160020160009054906101000a900460ff16156135e2576004600085815260200190815260200160002081815481106135a9576135a861477d565b5b906000526020600020906004020160000160009054906101000a900473ffffffffffffffffffffffffffffffffffffffff1691506135f5565b80806135ed906146d5565b91505061351d565b50600073ffffffffffffffffffffffffffffffffffffffff168173ffffffffffffffffffffffffffffffffffffffff1614613852578082600b0160006101000a81548173ffffffffffffffffffffffffffffffffffffffff021916908373ffffffffffffffffffffffffffffffffffffffff1602179055508160020154600660008373ffffffffffffffffffffffffffffffffffffffff1673ffffffffffffffffffffffffffffffffffffffff16815260200190815260200160002060008282546136c091906147ac565b9250508190555060018260070160006101000a81548160ff021916908360038111156136ef576136ee613d5c565b5b021790555060016005600085815260200190815260200160002060006101000a81548160ff021916908315150217905550600760008273ffffffffffffffffffffffffffffffffffffffff1673ffffffffffffffffffffffffffffffffffffffff1681526020019081526020016000206000016000815480929190613773906146d5565b91905055508160020154600760008373ffffffffffffffffffffffffffffffffffffffff1673ffffffffffffffffffffffffffffffffffffffff16815260200190815260200160002060020160008282546137ce91906147ac565b925050819055507f94f424150827ceaf7d7f36a7ef11c743a3ffbd87a462df186e1804189e71eba88382604051613806929190614f3a565b60405180910390a17fab7542bafced3da2d8c881cb2dd1de859fac7c20d3650d2902ad389a64e0888383828460020154604051613845939291906149dc565b60405180910390a1613929565b60038260070160006101000a81548160ff0219169083600381111561387a57613879613d5c565b5b02179055508160010160009054906101000a900473ffffffffffffffffffffffffffffffffffffffff1673ffffffffffffffffffffffffffffffffffffffff166108fc83600201549081150290604051600060405180830381858888f193505050501580156138ed573d6000803e3d6000fd5b507f94f424150827ceaf7d7f36a7ef11c743a3ffbd87a462df186e1804189e71eba8836000604051613920929190614f3a565b60405180910390a15b50613a06565b60038160070160006101000a81548160ff0219169083600381111561395757613956613d5c565b5b02179055508060010160009054906101000a900473ffffffffffffffffffffffffffffffffffffffff1673ffffffffffffffffffffffffffffffffffffffff166108fc82600201549081150290604051600060405180830381858888f193505050501580156139ca573d6000803e3d6000fd5b507f94f424150827ceaf7d7f36a7ef11c743a3ffbd87a462df186e1804189e71eba88260006040516139fd929190614f3a565b60405180910390a15b505b50565b60405180610180016040528060008152602001600073ffffffffffffffffffffffffffffffffffffffff168152602001600081526020016060815260200160608152602001606081526020016060815260200160006003811115613a7257613a71613d5c565b5b8152602001600081526020016000815260200160008152602001600073ffffffffffffffffffffffffffffffffffffffff1681525090565b828054828255906000526020600020908101928215613af2579160200282015b82811115613af1578251829081613ae19190614cff565b5091602001919060010190613aca565b5b509050613aff9190613b03565b5090565b5b80821115613b235760008181613b1a9190613b27565b50600101613b04565b5090565b508054613b339061474c565b6000825580601f10613b455750613b64565b601f016020900490600052602060002090810190613b639190613b67565b5b50565b5b80821115613b80576000816000905550600101613b68565b5090565b600081519050919050565b600082825260208201905092915050565b6000819050602082019050919050565b6000819050919050565b613bc381613bb0565b82525050565b600073ffffffffffffffffffffffffffffffffffffffff82169050919050565b6000613bf482613bc9565b9050919050565b613c0481613be9565b82525050565b600081519050919050565b600082825260208201905092915050565b60005b83811015613c44578082015181840152602081019050613c29565b60008484015250505050565b6000601f19601f8301169050919050565b6000613c6c82613c0a565b613c768185613c15565b9350613c86818560208601613c26565b613c8f81613c50565b840191505092915050565b600081519050919050565b600082825260208201905092915050565b6000819050602082019050919050565b6000613cd28383613c61565b905092915050565b6000602082019050919050565b6000613cf282613c9a565b613cfc8185613ca5565b935083602082028501613d0e85613cb6565b8060005b85811015613d4a5784840389528151613d2b8582613cc6565b9450613d3683613cda565b925060208a01995050600181019050613d12565b50829750879550505050505092915050565b7f4e487b7100000000000000000000000000000000000000000000000000000000600052602160045260246000fd5b60048110613d9c57613d9b613d5c565b5b50565b6000819050613dad82613d8b565b919050565b6000613dbd82613d9f565b9050919050565b613dcd81613db2565b82525050565b600061018083016000830151613dec6000860182613bba565b506020830151613dff6020860182613bfb565b506040830151613e126040860182613bba565b5060608301518482036060860152613e2a8282613c61565b91505060808301518482036080860152613e448282613c61565b91505060a083015184820360a0860152613e5e8282613c61565b91505060c083015184820360c0860152613e788282613ce7565b91505060e0830151613e8d60e0860182613dc4565b50610100830151613ea2610100860182613bba565b50610120830151613eb7610120860182613bba565b50610140830151613ecc610140860182613bba565b50610160830151613ee1610160860182613bfb565b508091505092915050565b6000613ef88383613dd3565b905092915050565b6000602082019050919050565b6000613f1882613b84565b613f228185613b8f565b935083602082028501613f3485613ba0565b8060005b85811015613f705784840389528151613f518582613eec565b9450613f5c83613f00565b925060208a01995050600181019050613f38565b50829750879550505050505092915050565b60006020820190508181036000830152613f9c8184613f0d565b905092915050565b6000604051905090565b600080fd5b600080fd5b613fc181613bb0565b8114613fcc57600080fd5b50565b600081359050613fde81613fb8565b92915050565b613fed81613be9565b8114613ff857600080fd5b50565b60008135905061400a81613fe4565b92915050565b6000806040838503121561402757614026613fae565b5b600061403585828601613fcf565b925050602061404685828601613ffb565b9150509250929050565b60006020828403121561406657614065613fae565b5b600061407484828501613fcf565b91505092915050565b60008115159050919050565b6140928161407d565b82525050565b60006020820190506140ad6000830184614089565b92915050565b6140bc81613bb0565b82525050565b60006020820190506140d760008301846140b3565b92915050565b6000602082840312156140f3576140f2613fae565b5b600061410184828501613ffb565b91505092915050565b600060608201905061411f60008301866140b3565b61412c60208301856140b3565b61413960408301846140b3565b949350505050565b6000806040838503121561415857614157613fae565b5b600061416685828601613fcf565b925050602061417785828601613fcf565b9150509250929050565b61418a81613be9565b82525050565b6000819050919050565b6141a381614190565b82525050565b60006080820190506141be6000830187614181565b6141cb602083018661419a565b6141d86040830185614089565b6141e560608301846140b3565b95945050505050565b600080fd5b600080fd5b7f4e487b7100000000000000000000000000000000000000000000000000000000600052604160045260246000fd5b61423082613c50565b810181811067ffffffffffffffff8211171561424f5761424e6141f8565b5b80604052505050565b6000614262613fa4565b905061426e8282614227565b919050565b600067ffffffffffffffff82111561428e5761428d6141f8565b5b61429782613c50565b9050602081019050919050565b82818337600083830152505050565b60006142c66142c184614273565b614258565b9050828152602081018484840111156142e2576142e16141f3565b5b6142ed8482856142a4565b509392505050565b600082601f83011261430a576143096141ee565b5b813561431a8482602086016142b3565b91505092915050565b600067ffffffffffffffff82111561433e5761433d6141f8565b5b602082029050602081019050919050565b600080fd5b600061436761436284614323565b614258565b9050808382526020820190506020840283018581111561438a5761438961434f565b5b835b818110156143d157803567ffffffffffffffff8111156143af576143ae6141ee565b5b8086016143bc89826142f5565b8552602085019450505060208101905061438c565b5050509392505050565b600082601f8301126143f0576143ef6141ee565b5b8135614400848260208601614354565b91505092915050565b60008060008060008060c0878903121561442657614425613fae565b5b600087013567ffffffffffffffff81111561444457614443613fb3565b5b61445089828a016142f5565b965050602087013567ffffffffffffffff81111561447157614470613fb3565b5b61447d89828a016142f5565b955050604087013567ffffffffffffffff81111561449e5761449d613fb3565b5b6144aa89828a016142f5565b945050606087013567ffffffffffffffff8111156144cb576144ca613fb3565b5b6144d789828a016143db565b93505060806144e889828a01613fcf565b92505060a06144f989828a01613fcf565b9150509295509295509295565b600060208201905061451b6000830184614181565b92915050565b600082825260208201905092915050565b600061453d82613c0a565b6145478185614521565b9350614557818560208601613c26565b61456081613c50565b840191505092915050565b61457481613db2565b82525050565b600061016082019050614590600083018e6140b3565b61459d602083018d614181565b6145aa604083018c6140b3565b81810360608301526145bc818b614532565b905081810360808301526145d0818a614532565b905081810360a08301526145e48189614532565b90506145f360c083018861456b565b61460060e08301876140b3565b61460e6101008301866140b3565b61461c6101208301856140b3565b61462a610140830184614181565b9c9b505050505050505050505050565b61464381614190565b811461464e57600080fd5b50565b6000813590506146608161463a565b92915050565b6000806040838503121561467d5761467c613fae565b5b600061468b85828601613fcf565b925050602061469c85828601614651565b9150509250929050565b7f4e487b7100000000000000000000000000000000000000000000000000000000600052601160045260246000fd5b60006146e082613bb0565b91507fffffffffffffffffffffffffffffffffffffffffffffffffffffffffffffffff8203614712576147116146a6565b5b600182019050919050565b7f4e487b7100000000000000000000000000000000000000000000000000000000600052602260045260246000fd5b6000600282049050600182168061476457607f821691505b6020821081036147775761477661471d565b5b50919050565b7f4e487b7100000000000000000000000000000000000000000000000000000000600052603260045260246000fd5b60006147b782613bb0565b91506147c283613bb0565b92508282019050808211156147da576147d96146a6565b5b92915050565b7f4f6e6c79206368616c6c656e67652063726561746f722063616e2063616c6c2060008201527f746869732066756e6374696f6e00000000000000000000000000000000000000602082015250565b600061483c602d83614521565b9150614847826147e0565b604082019050919050565b6000602082019050818103600083015261486b8161482f565b9050919050565b7f4368616c6c656e6765206973206e6f7420616374697665000000000000000000600082015250565b60006148a8601783614521565b91506148b382614872565b602082019050919050565b600060208201905081810360008301526148d78161489b565b9050919050565b7f4368616c6c656e676520616c726561647920636f6d706c657465640000000000600082015250565b6000614914601b83614521565b915061491f826148de565b602082019050919050565b6000602082019050818103600083015261494381614907565b9050919050565b7f57696e6e6572206d7573742062652061207665726966696564207375626d697460008201527f7465720000000000000000000000000000000000000000000000000000000000602082015250565b60006149a6602383614521565b91506149b18261494a565b604082019050919050565b600060208201905081810360008301526149d581614999565b9050919050565b60006060820190506149f160008301866140b3565b6149fe6020830185614181565b614a0b60408301846140b3565b949350505050565b7f416d6f756e742050616964206973204c657373205468616e2056616c7565205060008201527f75626c6973686564000000000000000000000000000000000000000000000000602082015250565b6000614a6f602883614521565b9150614a7a82614a13565b604082019050919050565b60006020820190508181036000830152614a9e81614a62565b9050919050565b7f4475726174696f6e206d7573742062652067726561746572207468616e203000600082015250565b6000614adb601f83614521565b9150614ae682614aa5565b602082019050919050565b60006020820190508181036000830152614b0a81614ace565b9050919050565b6000614b1c82613bb0565b9150614b2783613bb0565b9250828202614b3581613bb0565b91508282048414831517614b4c57614b4b6146a6565b5b5092915050565b60008190508160005260206000209050919050565b60006020601f8301049050919050565b600082821b905092915050565b600060088302614bb57fffffffffffffffffffffffffffffffffffffffffffffffffffffffffffffffff82614b78565b614bbf8683614b78565b95508019841693508086168417925050509392505050565b6000819050919050565b6000614bfc614bf7614bf284613bb0565b614bd7565b613bb0565b9050919050565b6000819050919050565b614c1683614be1565b614c2a614c2282614c03565b848454614b85565b825550505050565b600090565b614c3f614c32565b614c4a818484614c0d565b505050565b5b81811015614c6e57614c63600082614c37565b600181019050614c50565b5050565b601f821115614cb357614c8481614b53565b614c8d84614b68565b81016020851015614c9c578190505b614cb0614ca885614b68565b830182614c4f565b50505b505050565b600082821c905092915050565b6000614cd660001984600802614cb8565b1980831691505092915050565b6000614cef8383614cc5565b9150826002028217905092915050565b614d0882613c0a565b67ffffffffffffffff811115614d2157614d206141f8565b5b614d2b825461474c565b614d36828285614c72565b600060209050601f831160018114614d695760008415614d57578287015190505b614d618582614ce3565b865550614dc9565b601f198416614d7786614b53565b60005b82811015614d9f57848901518255600182019150602085019450602081019050614d7a565b86831015614dbc5784890151614db8601f891682614cc5565b8355505b6001600288020188555050505b505050505050565b6000608082019050614de660008301876140b3565b614df36020830186614181565b614e0060408301856140b3565b614e0d60608301846140b3565b95945050505050565b7f4368616c6c656e676520697320616c726561647920636f6d706c65746564206f60008201527f722063616e63656c6c6564000000000000000000000000000000000000000000602082015250565b6000614e72602b83614521565b9150614e7d82614e16565b604082019050919050565b60006020820190508181036000830152614ea181614e65565b9050919050565b7f4368616c6c656e676520686173207375626d697373696f6e732c2063616e6e6f60008201527f742063616e63656c000000000000000000000000000000000000000000000000602082015250565b6000614f04602883614521565b9150614f0f82614ea8565b604082019050919050565b60006020820190508181036000830152614f3381614ef7565b9050919050565b6000604082019050614f4f60008301856140b3565b614f5c6020830184614181565b9392505050565b7f4e6f207265776172647320746f20776974686472617700000000000000000000600082015250565b6000614f99601683614521565b9150614fa482614f63565b602082019050919050565b60006020820190508181036000830152614fc881614f8c565b9050919050565b7f4368616c6c656e67652068617320657870697265640000000000000000000000600082015250565b6000615005601583614521565b915061501082614fcf565b602082019050919050565b6000602082019050818103600083015261503481614ff8565b9050919050565b7f43726561746f722063616e6e6f74207375626d697420736f6c7574696f6e0000600082015250565b6000615071601e83614521565b915061507c8261503b565b602082019050919050565b600060208201905081810360008301526150a081615064565b9050919050565b60006060820190506150bc60008301866140b3565b6150c96020830185614181565b6150d6604083018461419a565b949350505050565b7f496e76616c6964206368616c6c656e6765204944000000000000000000000000600082015250565b6000615114601483614521565b915061511f826150de565b602082019050919050565b6000602082019050818103600083015261514381615107565b9050919050565b600061515582613bb0565b915061516083613bb0565b9250828203905081811115615178576151776146a6565b5b9291505056fea26469706673582212200802232a577b6da432da9bf46e9d6c7227ab73035e8fbbabf59e96e45da4064d64736f6c63430008140033",
  "linkReferences": {},
  "deployedLinkReferences": {}
}